:020000040800F2
:1000000000000220792B0008C9080008CB0800086E
:10001000CD080008CF080008D10800080000000043
:10002000000000000000000000000000012900089E
:10003000D308000800000000A1290008D508000826
:10004000C92B0008C92B0008C92B0008C92B0008C0
:10005000C92B0008C92B0008C92B0008C92B0008B0
:10006000C92B0008C92B0008C92B0008C92B0008A0
:10007000C92B0008C92B0008C92B0008C92B000890
:10008000C92B0008C92B0008C92B0008C92B000880
:10009000C92B0008C92B0008C92B0008C92B000870
:1000A000C92B0008C92B0008C92B0008C92B000860
:1000B000C92B0008C92B0008C92B0008C92B000850
:1000C000C92B0008C92B0008C92B0008C92B000840
:1000D000C92B0008C92B0008C92B0008C92B000830
:1000E000C92B0008C92B0008C92B0008C92B000820
:1000F000C92B0008C92B0008C92B0008C92B000810
:10010000C92B0008C92B0008C92B0008C92B0008FF
:10011000C92B0008C92B0008C92B0008C92B0008EF
:10012000C92B0008C92B0008C92B0008C92B0008DF
:10013000C92B00080000000000000000C92B0008C7
:10014000C92B0008C92B0008C92B0008C92B0008BF
:10015000C92B0008C92B0008C92B0008C92B0008AF
:10016000C92B0008C92B0008C92B0008C92B00089F
:10017000C92B0008C92B0008C92B0008000000008B
:1001800000000000C92B0008000000000000000073
:10019000C92B00080000000000000000C92B000867
:1001A000000000000000000000000000C92B000853
:1001B000C92B0008C92B0008C92B0008C92B00084F
:0401C000C92B00083F
:1001D000044B05481B1A062B02D9044B03B11847E0
:1001E000704700BF13000020100000200000000036
:1001F00005490648091A891001EBD171491002D04E
:10020000034B03B118477047100000201000002076
:100210000000000010B5064C237843B9FFF7D8FF63
:10022000044B13B10448AFF300800123237010BDC9
:100230001000002000000000CC2B000808B5084B7F
:100240001BB108490848AFF300800848036813B998
:10025000BDE80840CCE7064B002BF9D09847F7E7FC
:100260000000000014000020CC2B0008100000202B
:100270000000000070B50F4E0F4D761BB61018BF72
:10028000002405D0013455F8043B9847A642F9D123
:100290000A4E0B4D761B02F099FCB61018BF0024D5
:1002A00006D0013455F8043B9847A642F9D170BDF9
:1002B00070BD00BF5C2C00085C2C0008602C00089E
:1002C0005C2C000870B4860746D0541E002A41D02A
:1002D000CAB2034602E014F1FF343BD303F8012B0A
:1002E0009D07F8D1032C2ED9CDB245EA05250F2C58
:1002F00045EA054519D903F110022646103E0F2E96
:1003000042F8105C42F80C5C42F8085C42F8045C6D
:1003100002F11002F2D8A4F1100222F00F0204F050
:100320000F041032032C13440DD91E462246043A02
:10033000032A46F8045BFAD8221F22F00302043293
:10034000134404F003042CB1C9B21C4403F8011B8C
:100350009C42FBD170BC704714460346C2E700BF05
:1003600053B94AB9002908BF00281CBF4FF0FF311C
:100370004FF0FF3000F07AB9ADF1080C6DE904CE12
:1003800000F006F8DDF804E0DDE9022304B0704770
:100390002DE9F0478C460D460446089E002B51D1AE
:1003A0008A4217466DD9B2FA82FEBEF1000F0BD019
:1003B000CEF1200C01FA0EF520FA0CFC02FA0EF731
:1003C0004CEA050C00FA0EF44FEA174A250CBCFB68
:1003D000FAF81FFA87F90AFB18CC45EA0C4508FB26
:1003E00009F3AB420AD9ED1908F1FF3280F02381FD
:1003F000AB4240F22081A8F102083D44ED1AA4B2BC
:10040000B5FBFAF00AFB105544EA054400FB09F974
:10041000A14509D9E41900F1FF3380F00A81A14513
:1004200040F2078102383C44A4EB090440EA08404A
:100430000021002E61D024FA0EF400233460736092
:10044000BDE8F0878B4207D9002E54D0002186E802
:1004500021000846BDE8F087B3FA83F1002940F097
:100460008E80AB4202D3824200F2FA80841A65EB9E
:1004700003050120AC46002E3FD086E81010BDE8F1
:10048000F08712B90127B7FBF2F7B7FA87FEBEF182
:10049000000F34D1EB1B3A0C1FFA87FC0121B3FB90
:1004A000F2F8250C02FB183345EA03450CFB08F370
:1004B000AB4207D9ED1908F1FF3002D2AB4200F28E
:1004C000D1808046ED1AA3B2B5FBF2F002FB1055C5
:1004D00043EA05440CFB00FCA44507D9E41900F1EC
:1004E000FF3302D2A44500F2B8801846A4EB0C04F6
:1004F00040EA08409DE731463046BDE8F087CEF13E
:10050000200405FA0EF307FA0EF720FA04F83A0C65
:1005100025FA04F448EA0308B4FBF2F14FEA18455F
:1005200002FB11441FFA87FC45EA044501FB0CF36A
:10053000AB4200FA0EF409D9ED1901F1FF3080F059
:100540008A80AB4240F2878002393D44EB1A1FFAA1
:1005500088F5B3FBF2F002FB103345EA034500FBDC
:100560000CF3AB4207D9ED1900F1FF386FD2AB4263
:100570006DD902383D44EB1A40EA01418FE7C1F1E1
:10058000200722FA07F88B4005FA01F448EA030332
:1005900020FA07FE4FEA134CFD404EEA040EB5FB6D
:1005A000FCF94FEA1E440CFB19551FFA83F844EA84
:1005B000054509FB08F4AC4202FA01F200FA01FA1F
:1005C00008D9ED1809F1FF3043D2AC4241D9A9F165
:1005D00002091D442D1B1FFA8EFEB5FBFCF00CFB1F
:1005E00010554EEA054400FB08F8A04507D9E41869
:1005F00000F1FF3529D2A04527D902381C4440EA32
:100600000940A4EB0804A0FB02894C45C6464D46B0
:1006100015D312D056B1BAEB0E0364EB050404FAFD
:1006200007F7CB401F43CC40376074600021BDE822
:10063000F0871846F8E69046E0E6C245EAD2B8EB05
:10064000020E69EB03050138E4E72846D7E7404688
:1006500091E78146BEE7014678E702383C4445E72A
:10066000084608E7A8F102083D442BE7704700BFA1
:1006700030B589B00024039404940594069407943B
:100680000194134B1A6B42F001021A631A6B02F0C9
:1006900001020192019A02941A6B42F002021A635B
:1006A0001B6B03F002030293029B0A4D224620219A
:1006B000284600F045FE202303930123049305946C
:1006C000069403A9284600F051FD09B030BD00BFD3
:1006D000003802400000024000B583B020210F48DE
:1006E00000F034FE4FF0FF3310220D490D4801F0A9
:1006F000B6FA4FF0FF3310220B490C4801F0AFFA65
:100700006423009304230A4AAA210A4801F004F949
:100710004FF47A7001F06EFFE0E700BF0000024086
:10072000002C00086C400020102C000828400020FD
:10073000202C0008D43F002072B6FEE708B50A4816
:100740000A4B03600A4B436000238360C3604FF48D
:100750008042026143618361C361036201F002F878
:1007600000B908BDFFF7E8FFD43F00200054004067
:10077000A086010008B50A480A4B03604FF4E13334
:10078000436000238360C36003610C224261836184
:10079000C36101F035FA00B908BDFFF7CDFF00BF16
:1007A000284000200010014008B50A480A4B0360A9
:1007B0004FF4E133436000238360C36003610C2284
:1007C00042618361C36101F01BFA00B908BDFFF704
:1007D000B3FF00BF6C4000200044004000B595B05E
:1007E0003422002107A8FFF76DFD00230293039335
:1007F0000493059306930093194A116C41F08051BC
:100800001164126C02F080520092009A0193154913
:100810000A6822F4404242F480420A600A6802F404
:1008200040420192019A0222079201220A9210226A
:100830000B920D9307A800F07BFA68B90F2302937F
:100840000021039104910591069102A800F00AF994
:1008500020B915B05DF804FBFFF76EFFFFF76CFFE2
:10086000003802400070004000B589B000F0F8FD8B
:10087000FFF7B4FFFFF7FCFEFFF760FFFFF77AFF1B
:10088000FFF792FF01AC084D0FCD0FC495E80700AC
:1008900084E80700002101A801F077FE034B1860EF
:1008A00001F06EFEFEE700BFE42B0008D03F002001
:1008B000034B0360034B0B6080231360704700BF42
:1008C0002C0200202C000020FEE7FEE7FEE7FEE7FA
:1008D000FEE7704708B500F0DDFD01F03BFE0128A2
:1008E00001D002F08FF808BD00B583B0002200925D
:1008F0000D4B596C41F480415964596C01F48041AD
:10090000009100990192196C41F0805119641B6C9F
:1009100003F080530193019B0F216FF0010000F061
:1009200031FD03B05DF804FB0038024030B589B0FA
:100930000023039304930593069307930268154BD2
:100940009A4201D009B030BD00250195124C236BAD
:1009500043F002032363236B03F002030193019B23
:10096000C0230393122304930123059303230693C7
:100970000423079303A9094800F0F8FB0295236CB0
:1009800043F400132364236C03F400130293029BCB
:10099000D8E700BF00540040003802400004024085
:1009A00000B58BB000230593069307930893099332
:1009B0000368284A934205D0274A934226D00BB0B9
:1009C0005DF804FB00210191244B5A6C42F01002A7
:1009D0005A645A6C02F010020192019A02911A6B49
:1009E00042F001021A631B6B03F001030293029BA6
:1009F0004FF4C06305930223069303230893072350
:100A0000099305A9164800F0B1FBD8E7002103912E
:100A1000124B1A6C42F400321A641A6C02F400325F
:100A20000392039A04911A6B42F001021A631B6B42
:100A300003F001030493049B0C2305930223069304
:100A4000032308930723099305A9054800F08EFBAB
:100A5000B5E700BF001001400044004000380240EC
:100A600000000240002800F09E8070B50446504B04
:100A70001B6803F00F038B4209D2CBB24C4A1370B0
:100A8000136803F00F03994201D0012070BD236861
:100A900013F0020F17D013F0040F04D0454A9368E7
:100AA00043F4E0539360236813F0080F04D0414AE5
:100AB000936843F4604393603E4A936823F0F003E5
:100AC000A068034393600D46236813F0010F32D0F2
:100AD0006368012B21D09A1E012A25D9354A126854
:100AE00012F0020F61D033498A6822F003021343E7
:100AF0008B6000F0DBFC06462E4B9B6803F00C037A
:100B00006268B3EB820F16D000F0D0FC801B41F27C
:100B100088339842F0D9032070BD264A126812F437
:100B2000003FE0D1012070BD224A126812F0007F20
:100B3000D9D1012070BD1E4B1B6803F00F039D42ED
:100B400009D2EAB21A4B1A701B6803F00F039D42D8
:100B500001D0012070BD236813F0040F06D0154AA0
:100B6000936823F4E053E1680B439360236813F028
:100B7000080F07D00F4A936823F46043216943EAC2
:100B8000C103936000F044F80A4B9B68C3F303135E
:100B9000094AD35CD840094B1860094B186800F02B
:100BA00039FC002070BD01207047012070BD00BFDE
:100BB000003C024000380240342C000808000020AD
:100BC00004000020014B1868704700BF0800002097
:100BD00008B5FFF7F7FF044B9B68C3F38223034A72
:100BE000D35CD84008BD00BF00380240442C000848
:100BF00008B5FFF7E7FF044B9B68C3F34233034A92
:100C0000D35CD84008BD00BF00380240442C000827
:100C1000F8B5444B9B6803F00C03082B05D00C2B54
:100C200041D0042B7BD04048F8BD3E4B5A6802F0BF
:100C30003F025B6813F4800F12D03A4B5968C1F33E
:100C4000881100233948A1FB0001FFF789FB354BD0
:100C50005B68C3F3014301335B00B0FBF3F0F8BD05
:100C6000304B5B68C3F388131E4600275C010025E8
:100C7000E41A65EB0705A90141EA9461A001001B94
:100C800061EB0501CB0043EA5073C400A01943EBAC
:100C900007018B0243EA9053840220461946002341
:100CA000FFF75EFBD3E71F4B5A6802F03F025B6819
:100CB00013F4800F10D01B4B5968C1F38811002327
:100CC0001A48A1FB0001FFF74BFB164B5B68C3F30F
:100CD0000273B0FBF3F0F8BD124B5B68C3F38813EB
:100CE0001E4600275C010025E41A65EB0705A901F3
:100CF00041EA9461A001001B61EB0501CB0043EACE
:100D00005073C400A01943EB07018B0243EA9053D0
:100D10008402204619460023FFF722FBD5E703484B
:100D2000F8BD00BF003802400024F40040787D0187
:100D3000002800F00B8270B582B00446036813F0FF
:100D4000010F41D0A54B9B6803F00C03042B32D05C
:100D5000A24B9B6803F00C03082B27D09F4B9B688A
:100D600003F00C030C2B59D06368B3F5803F5BD0C4
:100D7000B3F5A02F5ED0994B1A6822F480321A6026
:100D80001A6822F480221A606368002B5CD000F09D
:100D90008DFB0546914B1B6813F4003F14D100F006
:100DA00085FB401B6428F5D90320D4E18B4B5B689D
:100DB00013F4800FD2D0894B1B6813F4003F03D08B
:100DC0006368002B00F0C481236813F0020F67D022
:100DD000824B9B6813F00C0F4AD0804B9B6803F04A
:100DE0000C03082B3FD07D4B9B6803F00C030C2BAE
:100DF00048D0E368002B74D00122794B1A6000F0D0
:100E000055FB0546754B1B6813F0020F60D100F0CF
:100E10004DFB401B0228F5D903209CE16F4B5B681A
:100E200013F4800FA0D0C6E76C4A136843F48033F4
:100E30001360A9E7694B1A6842F480221A601A68A5
:100E400042F480321A609FE700F030FB0546634BA6
:100E50001B6813F4003FB7D000F028FB401B642848
:100E6000F5D9032077E15D4B5B6813F4800FBAD1AD
:100E70005A4B1B6813F0020F0AD0E368012B07D00E
:100E8000012068E1554B5B6813F4800FB1D1EFE7A7
:100E9000524A136823F0F803216943EAC10313603F
:100EA000236813F0080F40D0636963B301224D4BF0
:100EB0001A6000F0FBFA0546484B5B6F13F0020F17
:100EC00033D100F0F3FA401B0228F5D9032042E1A8
:100ED000424A136823F0F803216943EAC10313600F
:100EE000DEE700223E4B1A6000F0E0FA05463B4B7D
:100EF0001B6813F0020FD3D000F0D8FA401B022871
:100F0000F5D9032027E10022364B1A6000F0CEFA13
:100F10000546324B5B6F13F0020F06D000F0C6FAA5
:100F2000401B0228F5D9032015E1236813F0040FB4
:100F300078D02A4B1B6C13F0805F33D100230193D0
:100F4000264B1A6C42F080521A641B6C03F08053DB
:100F50000193019B0125244B1B6813F4807F23D050
:100F6000A368012B34D0052B40D01C4B1A6F22F004
:100F700001021A671A6F22F004021A67A368002B95
:100F80003ED000F093FA0646144B1B6F13F0020F8D
:100F900047D100F08BFA801B41F288339842F3D995
:100FA0000320D8E00025D6E70F4A136843F4807386
:100FB000136000F07BFA06460B4B1B6813F4807F2E
:100FC000CED100F073FA801B0228F5D90320C2E0CD
:100FD000024A136F43F001031367CFE70038024062
:100FE00000004742800E4742007000405D4B1A6F80
:100FF00042F004021A671A6F42F001021A67BDE755
:1010000000F054FA0646574B1B6F13F0020F08D03E
:1010100000F04CFA801B41F288339842F3D9032048
:1010200099E0EDB9A369002B00F094804D4A9268D5
:1010300002F00C02082A54D0022B17D000224A4B8F
:101040001A6000F033FA0446464B1B6813F0007F29
:1010500045D000F02BFA001B0228F5D903207AE0D6
:10106000404A136C23F080531364DBE700223E4BAD
:101070001A6000F01BFA05463A4B1B6813F0007F1C
:1010800006D000F013FA401B0228F5D9032062E0D5
:10109000E369226A1343626A43EA8213A26A52082E
:1010A000013A43EA0243E26A43EA0263226B43EAFB
:1010B00002732C4A536001222B4B1A6000F0F6F9A0
:1010C0000446284B1B6813F0007F06D100F0EEF9B0
:1010D000001B0228F5D903203DE000203BE0002062
:1010E00039E0012B39D01F4B5B6803F48001E269C2
:1010F000914201D001202EE003F03F02216A8A4292
:1011000001D0012027E0616A47F6C0721A40B2EBB5
:10111000811F01D001201EE003F44031A26A520871
:10112000013AB1EB024F01D0012014E003F07062EC
:10113000E16AB2EB016F01D001200CE003F0E04363
:10114000226BB3EB027F0AD0012004E0012070473C
:10115000012000E0002002B070BD0120FBE700206C
:10116000F9E700BF003802406000474200230F2B20
:1011700000F2DA80F0B583B062E085684FEA430E92
:10118000032707FA0EF725EA0705CE6806FA0EF6DA
:1011900035438560456825EA02024D68C5F30015B0
:1011A0009D402A43426057E0DD08083550F825206D
:1011B00003F00706B6000F27B74022EA07020F69BF
:1011C00007FA06F6324340F8252059E0062600E0EB
:1011D000002606FA0EF635430232544E46F82250E7
:1011E000534A1568E24305EA02064F6817F4803F48
:1011F00001D044EA05064E4D2E606D6802EA0506F0
:101200004F6817F4003F01D044EA0506484D6E6070
:10121000AD6802EA05064F6817F4801F01D044EA62
:101220000506434DAE60ED682A404E6816F4001F77
:1012300001D044EA05023E4CE26001330F2B71D825
:1012400001229A400C681440A242F6D14D6805F084
:101250000305013D012D90D94A6802F00302032ADB
:1012600009D0C2685F000326BE4022EA06028D68EC
:10127000BD402A43C2604A6802F00302022A93D0AA
:1012800002685F000326BE4022EA06024D6805F0B0
:101290000305BD402A4302604A6812F0805FCCD04B
:1012A00000220192234A556C45F480455564526CE6
:1012B00002F480420192019A9A08961C1B4D55F83F
:1012C000265003F003064FEA860E0F2606FA0EF6A6
:1012D00025EA0605184FB8423FF47AAF174EB042E0
:1012E00016D006F58066B04214D006F58066B0428E
:1012F00012D006F58066B04210D006F58066B04286
:101300000ED006F58066B0423FF460AF072660E776
:1013100001265EE702265CE703265AE7042658E723
:10132000052656E703B0F0BD704700BF0038014006
:10133000003C01400038024000000240000402402E
:1013400012B909048161704781617047436903EAFA
:10135000010221EA030141EA024181617047000074
:10136000074AD36823F4E0631B041B0C000200F45B
:10137000E060184340F0BF6040F40030D060704738
:1013800000ED00E030B4164BDB68C3F30223C3F179
:101390000704042C28BF04241D1D062D17D9033B68
:1013A000012505FA04F4013C2140994005FA03F3B4
:1013B000013B1340194300280BDB0901C9B200F1BE
:1013C000604000F5614080F8001330BC7047002396
:1013D000E6E700F00F000901C9B2024B1954F4E727
:1013E00000ED00E014ED00E00138B0F1807F0AD29A
:1013F000064B5860F021064A82F8231000209860BE
:1014000007221A6070470120704700BF10E000E01B
:1014100000ED00E010B504460E4B18784FF47A73D7
:10142000B3FBF0F30C4A1068B0FBF3F0FFF7DCFFFE
:1014300068B90F2C01D9012010BD002221464FF0C0
:10144000FF30FFF79FFF054B1C60002010BD0120FF
:1014500010BD00BF00000020080000200400002094
:1014600008B50B4B1A6842F400721A601A6842F40D
:1014700080621A601A6842F480721A600320FFF7D3
:101480006FFF0F20FFF7C6FFFFF72EFA002008BD01
:10149000003C0240034A1168034B1B780B44136065
:1014A000704700BFB040002000000020014B1868CA
:1014B000704700BFB040002003685A6912F4806F83
:1014C00011D06FF480625A6100230363202280F8F8
:1014D0003D2080F83E30026C42F00402026480F845
:1014E0003C300120704700207047F8B506460C4696
:1014F00017461D4622E0FFF7D9FF069BC01A85421A
:1015000000D3DDB900233363202286F83D2086F81E
:101510003E30326C42F02002326486F83C300120CA
:10152000F8BD33685B6924EA03039BB2B3FA83F323
:101530005B09BB420FD1B5F1FF3FDCD1C4F30743D8
:10154000012BEED033689B6924EA03039BB2B3FA04
:1015500083F35B09EDE70020F8BDF8B504460D46BE
:1015600016461F463CE01A6842F400721A6023686F
:101570006FF480625A6100232363202284F83D20A7
:1015800084F83E30226C42F00402226484F83C303D
:101590000120F8BDFFF78AFFC01B864200D3FEB9C9
:1015A00000232363202284F83D2084F83E30226CFF
:1015B00042F02002226484F83C300120F8BD236808
:1015C0005B6925EA03039BB2003318BF0123A3B173
:1015D00023685A6912F4806FC5D1B6F1FF3FD9D1A3
:1015E000C5F30743012BEAD023689B6925EA03036F
:1015F0009BB2003318BF0123E9E70020F8BD0000CB
:10160000F0B583B004460F4615461E46C36A082B44
:101610000DD0012B0BD013F5803F08D0036B122B9C
:101620000AD10268136843F48073136004E02268EF
:10163000136843F48073136000962B4600224FF02A
:1016400001112046FFF751FF58B123681B6813F4BE
:10165000807F2BD04FF4007323640323184603B01C
:10166000F0BD2369B3F5804F11D02268FB1103F060
:10167000060343F0F003136133462A460D49204622
:10168000FFF76BFFA0B92368FFB21F6103E0236877
:1016900007F0FE071F6133462A4607492046FFF739
:1016A0005CFF03460028D9D00123D7E70323D5E701
:1016B0000123D3E7080001000200010070B50446D1
:1016C0000D46164623685B6913F0800F1CD1204637
:1016D000FFF7F2FED0B9B5F1FF3FF3D0FFF7E6FE1A
:1016E000801B854201D3002DECD1002323632022EF
:1016F00084F83D2084F83E30226C42F020022264BF
:1017000084F83C30012070BD002070BD012070BD08
:1017100070B504460D46164623685B6913F0040F46
:101720001CD12046FFF7C8FED0B9B5F1FF3FF3D07A
:10173000FFF7BCFE801B854201D3002DECD10023B6
:101740002363202284F83D2084F83E30226C42F04E
:101750002002226484F83C30012070BD002070BD5E
:10176000012070BD002800F0C880F8B5044690F84C
:101770003D30002B75D0242384F83D302268136857
:1017800023F0010313602268136843F400431360DD
:101790002268136823F400431360FFF719FA6268A4
:1017A000584B9A4262D8584B98428CBF0023012371
:1017B000002B40F0A480554BA3FB00239A0C21681A
:1017C0004B6823F03F0313434B602568296A21F0DF
:1017D0003F0166684B4B9E424ED8531C0B432B6215
:1017E0002268D16921F44F4121F0FF016368454D22
:1017F000AB424BD801385B00B0FBF3F30133C3F3CA
:101800000B03042B38BF04230B43D36121680B68FF
:1018100023F0C003E269206A024313430B6021688E
:101820008B6823F4034323F0FF032269E06802433B
:1018300013438B602168CB6823F0FF036269A069C2
:1018400002431343CB602268136843F00103136023
:1018500000202064202384F83D30206384F83E007B
:10186000F8BD80F83C30FFF761F884E7284B9842D8
:101870008CBF002301239BE74FF4967303FB02F315
:10188000244AA2FB03239B090133A7E7A668BEB93C
:10189000451E03EB4307B5FBF7F50135C5F30B0513
:1018A000B5FA85F56D0935BBC6B9013803EB4303BD
:1018B000B0FBF3F30133C3F30B0343F40043A3E79B
:1018C000451E03EB830707EB8707B5FBF7F50135EB
:1018D000C5F30B05B5FA85F56D09E4E7013803EBAF
:1018E000830303EB8303B0FBF3F30133C3F30B0375
:1018F00043F4404388E7012386E701207047012035
:10190000F8BD00BFA08601007F841E0083DE1B435C
:10191000FF083D00D34D62102DE9F04184B004462C
:101920000D4690461F46FFF7C1FD94F83D30DBB2EF
:10193000202B04D00225284604B0BDE8F0810646DD
:101940000090192301224F492046FFF7CEFD08B130
:101950000225F0E794F83C30012B00F08E80012343
:1019600084F83C3023681A6812F0010F03D11A681A
:1019700042F001021A602268136823F400631360C6
:10198000212384F83D30102384F83E300023236463
:10199000C4F824806785638D23853B4BE36233461F
:1019A0000A9A29462046FFF72BFE0546002866D1F5
:1019B0000023039323685A6903929B690393039B53
:1019C00012E0236C042B01D00125B4E722681368D0
:1019D00043F4007313600125ADE732460A992046AF
:1019E000FFF796FE00282ED1238D002B37D03246EC
:1019F0000A992046FFF762FE0028E2D12368626A56
:101A000012781A61616A4B1C6362638D9BB2013B61
:101A10009BB26385238D013B9BB22385226850696D
:101A200010F0040FD9D0002BD7D04B781361636A24
:101A300001336362638D9BB2013B9BB26385238D4F
:101A4000013B2385C9E7236C042B01D0012572E7F4
:101A50002268136843F40073136001256BE7226862
:101A6000136843F400731360202384F83D3000238F
:101A700084F83E3084F83C305DE702255BE70125C1
:101A800059E700BF020010000000FFFFF8B5044650
:101A90000268136923F44053C1680B4313618368E0
:101AA0000269134342691343C26913430168CA6858
:101AB00022F4164222F00C021343CB6002685369F1
:101AC00023F4407381690B4353610368314A9342A5
:101AD00032D002F5806293422ED0FFF779F8E369A5
:101AE000B3F5004F2BD025680021061841EB010704
:101AF00036184F41FB0043EA5673F20016461F4664
:101B000063689A009B0F80197941FEF729FC224CEB
:101B1000A4FB00325109642202FB1102130132338B
:101B2000A4FB03235B0903F0F00202EB011203F0B4
:101B30000F031344AB60F8BDFFF75AF8CFE72568F1
:101B40000021061841EB010736184F41FB0043EA1C
:101B50005673F20016461F466268002392185B41D6
:101B600080197941FEF7FCFB0B4CA4FB00325109B4
:101B7000642202FB1102D3003233A4FB03235B096E
:101B80005A0002F4F87202EB011203F00703134447
:101B9000AB60F8BD001001401F85EB512DE9F0410D
:101BA00005460F4616469846069C2B681B6837EA82
:101BB00003030CBF01230023B3421ED1B4F1FF3F46
:101BC000F3D02CB1FFF772FCA0EB08008442ECD2FA
:101BD0002A68D36823F4D073D3602A68536923F04A
:101BE00001035361202385F83D3085F83E30002302
:101BF00085F83C300320BDE8F0810020BDE8F0818D
:101C000058B310B5044690F83D300BB3242384F844
:101C10003D302268D36823F40053D3602046FFF799
:101C200035FF2268136923F49043136122685369D6
:101C300023F02A0353612268D36843F40053D3602E
:101C400000202064202384F83D3084F83E3010BD0D
:101C500080F83C30FEF7A4FED8E7012070472DE95C
:101C6000F04182B01E4690F83D30DBB2202B04D00C
:101C70000223184602B0BDE8F08104460D469046A6
:101C8000002954D0002A54D090F83C30012B01D1C7
:101C90000223EEE7012380F83C3000230364212374
:101CA00080F83D30FFF702FC0746A4F82480A4F832
:101CB0002680A368B3F5805F05D04FF000080023AD
:101CC00084F83C3012E0236913B14FF00008F6E7C6
:101CD000A8460025F3E7226838F8023BC3F308035F
:101CE0005360E38C9BB2013B9BB2E384E38C9BB2D9
:101CF00073B100963B46002280212046FFF74EFF3D
:101D0000C8B9002DE7D0236815F8012B5A60E8E721
:101D100000963B46002240212046FFF73FFF034646
:101D200008B10323A5E7202284F83D20A1E7012381
:101D30009FE701239DE703239BE70000034AD2F8B6
:101D4000883043F47003C2F88830704700ED00E03B
:101D500000F1080343604FF0FF328260C36003610B
:101D600000230360704700230361704743684B60A2
:101D70009A688A609A6851609960086103680133C3
:101D80000360704730B40D68B5F1FF3F02D000F139
:101D9000080202E0026904E01A4653681C68A54282
:101DA000FAD253684B6099608A6051600861036899
:101DB0000133036030BC70470369426881689160F9
:101DC0008268416851605A68904206D000220261E0
:101DD0001A68013A1A601868704782685A60F5E715
:101DE000084B1B681B683BB1064B1B68DB68DB6854
:101DF0005A68054B1A6070474FF0FF32024B1A6069
:101E0000704700BF84020020540300202DE9F047F2
:101E100080469946089D099F0A9C266B02F18042E4
:101E2000013A06EB820626F0070689B30A4600232C
:101E30000F2B07D8D05CE11881F83400D15C09B1D0
:101E40000133F5E7002384F84330062D00D9062539
:101E5000E56265644FF0000AC4F848A0201DFFF752
:101E600082FF04F11800FFF77EFF2461C5F107052A
:101E7000A5616462C4F84CA084F850A04A4641466B
:101E8000304600F025FD206007B13C60BDE8F087DA
:101E9000002384F83430D8E738B5002407E004EB99
:101EA000840293000E481844FFF752FF0134062CB9
:101EB000F5D90C4D2846FFF74BFF0B4C2046FFF79A
:101EC00047FF0A48FFF744FF0948FFF741FF094869
:101ED000FFF73EFF084B1D60084B1C6038BD00BF7C
:101EE0008C0200202C03002040030020600300200F
:101EF0008C03002078030020840200208802002048
:101F000010B5044600F00EFD204A1368013313603B
:101F10001F4B1B68002B31D01E4B1B683BB91C4B61
:101F20001B68DA6AE36A9A4201D8194B1C601A4AA4
:101F3000136801331360E36A01229A401749086865
:101F400002430A6003EB83039A00211D14481044E6
:101F5000FFF70CFF00F008FD0E4B1B686BB10C4B3C
:101F60001B68DA6AE36A9A4207D24FF080520D4B3F
:101F70001A60BFF34F8FBFF36F8F10BD044B1C600F
:101F80001368012BD3D1FFF787FFD0E71803002098
:101F90008002002074030020240300202803002076
:101FA0008C02002004ED00E010B5044690F851309A
:101FB00063B1012B11D0022B12D04FF0500383F3E9
:101FC0001188BFF36F8FBFF34F8FFEE7006B00F0F8
:101FD00003FC204600F000FC10BD00F0FDFB10BD2E
:101FE00010BD00000F4B1B68D3B110B500F09AFC78
:101FF0000D4BDB68DC68201DFFF7DEFE0B4A136823
:10200000013B1360074A1368013B136000F0ACFC0E
:102010002046FFF7C9FF034B1B68002BE6D110BD1C
:10202000704700BF1C0300208C0300201803002011
:1020300008B5FFF7D7FF064B1B68012BF9D94FF006
:102040008052044B1A60BFF34F8FBFF36F8FF0E7DE
:102050008C02002004ED00E070B504460E461D4BD6
:102060001D681D4B18680430FFF7A6FE50B91A4BC7
:102070001B68DA6A012303FA02F218490B6823EAA3
:1020800002030B60B4F1FF3F13D02C44124B1B68CA
:102090005C60A54216D8124B18680F4B19680431C2
:1020A000FFF770FE0F4B1B689C4201D20D4B1C606A
:1020B00070BD002EE9D0084B196804310A48FFF7BB
:1020C00055FE70BD094B1868034B19680431FFF7C2
:1020D00059FE70BDA00300208002002028030020CC
:1020E000840200205403002078030020880200208E
:1020F00070B586B00B9D0C9C75B1B4B15426049696
:10210000049E542E1AD04FF0500383F31188BFF36E
:102110006F8FBFF34F8FFEE74FF0500383F31188AB
:10212000BFF36F8FBFF34F8FFEE74FF0500383F382
:102130001188BFF36F8FBFF34F8FFEE7049E2563B7
:10214000022584F8515000250395029405AD0195B0
:102150000A9D0095FFF75AFE2046FFF7D1FE05982D
:1021600006B070BD2DE9F04385B006460F46154612
:102170009846900000F0A6FA10B38146542000F073
:10218000A1FA0446C0B1C0F83090DCB1002384F855
:102190005130039302940D9B01930C9B0093434693
:1021A0002A4639463046FFF731FE2046FFF7A8FEA3
:1021B000012005B0BDE8F083484600F00DFBE4E7E0
:1021C0000024E2E74FF0FF30F3E7000010B588B0DD
:1021D00000240594069407AA06A905A8FEF768FB43
:1021E000059B0293069B019300942346079A10498E
:1021F0001048FFF77DFF18B101231BB908B010BDCF
:102200000023FAE74FF0500383F31188BFF36F8F79
:10221000BFF34F8F4FF0FF32074B1A600122074B7D
:102220001A600022064B1A6000F01EFCE6E700BFB1
:102230004C2C0008312000085403002074030020B7
:10224000A0030020024A136801331360704700BFE7
:1022500020030020F8B53A4B1B68002B69D1394B9D
:102260001D6801351D60C5B9374B1B681B6843B13C
:102270004FF0500383F31188BFF36F8FBFF34F8F7D
:10228000FEE7314A1168314B186810601960304A16
:10229000136801331360FFF7A3FD2E4B1B689D42AB
:1022A0003DD200242C4B1B68DB6A03EB83039A00AE
:1022B0002A4B9B58012B00D90124294B1B68002B6A
:1022C0003CD001243AE001241F4B1B681B6843B338
:1022D0001D4B1B68DB68DE6873689D4226D3371D83
:1022E0003846FFF769FDB36A1BB106F11800FFF726
:1022F00063FDF36A01229A401A49086802430A60A2
:1023000003EB83039A00394614481044FFF72EFD6F
:10231000F26A114B1B68DB6A9A42D4D2D4E70024DC
:10232000D2E74FF0FF320B4B1A60BBE7094A13604C
:10233000B8E70D4A13680133136000242046F8BD46
:1023400020030020A0030020840200208802002037
:102350005803002054030020800200208C0200203B
:10236000A4030020280300205C03002038B5354B6F
:102370001B6843B94FF0500383F31188BFF36F8F8D
:10238000BFF34F8FFEE700F0CDFA2E4B1A68013AEB
:102390001A601B68002B50D12B4B1B6823B90024FB
:1023A00000F0E2FA204638BD0024284B1B681BB31E
:1023B000264BDB68DC6804F11800FFF7FDFC251DE7
:1023C0002846FFF7F9FCE36A01229A402049086891
:1023D00002430A6003EB83039A0029461D48104418
:1023E000FFF7C4FCE26A1C4B1B68DB6A9A42DCD331
:1023F00001221A4B1A60D8E70CB1FFF7F1FC184B19
:102400001C6874B9154B1B68CBB14FF08052154B4B
:102410001A60BFF34F8FBFF36F8F0124C0E7013CF9
:1024200007D0FFF717FF0028F9D001220B4B1A60E5
:10243000F5E700220A4B1A60E4E70024B0E7002425
:10244000AEE700BF20030020180300206003002037
:10245000280300208C02002080020020A40300201A
:102460005C03002004ED00E010B5A8B10446104B59
:102470001B6843B14FF0500383F31188BFF36F8F94
:10248000BFF34F8FFEE7FFF7DDFE00212046FFF789
:10249000E3FDFFF76BFF00E0002038B94FF08052FA
:1024A000044B1A60BFF34F8FBFF36F8F10BD00BF97
:1024B0002003002004ED00E0214B1B68C3B900227B
:1024C000204B1A60204B1B68B3FA83F3DBB2C3F1D5
:1024D0001F0303EB83018A001C498A5862B94FF03D
:1024E000500383F31188BFF36F8FBFF34F8FFEE765
:1024F0000122144B1A60704710B414489A00D41883
:10250000A10001444C6864684C601A449100083191
:10251000084484420BD003EB83039A000B4B134413
:102520005B68DA680A4B1A605DF8044B70476068B4
:1025300003EB83029100054A0A445060EBE700BFB9
:1025400020030020A4030020280300208C02002088
:1025500080020020054B1B6823B1054B1B681BB98B
:10256000022070470120704700207047740300204C
:1025700020030020842801D00330704700207047DA
:1025800008B5FFF723FE002008BD2DE9F04387B012
:1025900004460F464569BDB18669AEB1D0F80480E6
:1025A000D0F80090B0F90800FFF7E4FF2269029626
:1025B000019500903B4649464046FFF799FD05903E
:1025C000059807B0BDE8F08365682668D4F81080E8
:1025D000B4F90800FFF7CEFF05AB019300903B462E
:1025E0001FFA88F231462846FFF7BCFD0128E7D0E4
:1025F0000020E6E708B5034600B901231846FFF7B7
:1026000033FF002008BD0000124A12F0070F1ED051
:10261000D11D21F00701C1F5705313440A460E483D
:102620000260002141601344083B23F007030B487C
:10263000036059601960991A51601360084B196062
:10264000084B19604FF00042074B1A6070474FF477
:102650007053E4E7AC030020C03F0020A803002033
:10266000B43F0020B03F0020AC3F002010B4134B1B
:102670001A6882421BD359685C18A04203D1406893
:1026800001445960184641684418A24213D10C4CC9
:102690002468A2420DD05268114441601A68126841
:1026A0000260984200D018605DF8044B70471346F2
:1026B000DEE70460F5E70260F3E700BFC03F0020FB
:1026C000A803002070B50446FFF7BCFD3C4B1B6817
:1026D000BBB13C4B1B681C4267D1ACB1083414F051
:1026E000070F11D024F00704083404F007035BB18E
:1026F0004FF0500383F31188BFF36F8FBFF34F8FF9
:10270000FEE7FFF781FFE4E7002C50D02E4B1B685B
:102710009C424ED82D4B1D6801E02B4615466A6839
:10272000944202D92A68002AF7D1254A12689542B4
:1027300041D01E6808362A681A606B681B1B102B74
:1027400010D9281910F0070F08D04FF0500383F369
:102750001188BFF36F8FBFF34F8FFEE743606C604C
:10276000FFF784FF6A6818490B689B1A0B601849C9
:1027700009688B4201D216490B60124B1B68134348
:102780006B6000232B60134A136801331360FFF75B
:10279000EDFD16F0070F10D04FF0500383F31188B2
:1027A000BFF36F8FBFF34F8FFEE70026EFE70026E2
:1027B000EDE70026EBE70026E9E7304670BD00BFF5
:1027C000A8030020AC3F0020B03F0020C03F002005
:1027D000B43F0020B83F0020002834D038B504466C
:1027E000A0F1080550F8042C174909680A4208D1DD
:1027F0004FF0500383F31188BFF36F8FBFF34F8FF8
:10280000FEE750F8080C40B14FF0500383F31188F5
:10281000BFF36F8FBFF34F8FFEE722EA010244F848
:10282000042CFFF70FFD54F8041C084A13680B44EE
:1028300013602846FFF71AFF054A13680133136037
:10284000FFF794FD38BD7047AC3F0020B03F00203B
:10285000BC3F002082B0002301930D4B1B68B3F1F5
:10286000FF3F08D04FF0500383F31188BFF36F8F01
:10287000BFF34F8FFEE74FF0500383F31188BFF390
:102880006F8FBFF34F8F019B002BFCD002B07047BE
:102890000C00002008480068006880F308884FF0AA
:1028A000000080F3148862B661B6BFF34F8FBFF3A8
:1028B0006F8F00DF00BF000008ED00E0DFF80C00C4
:1028C000016841F4700101607047000088ED00E08C
:1028D0004FF0807340F8043C21F0010140F8081CDF
:1028E000054B40F80C3C40F8202C6FF0020340F8F8
:1028F000243C4438704700BF552800080000000001
:10290000074B19680868B0E8F04F80F30988BFF3F7
:102910006F8F4FF0000080F311887047AFF3008095
:10292000800200204FF0500383F31188BFF36F8FB4
:10293000BFF34F8F0A4A136801331360012B0DD187
:10294000084B1B6813F0FF0F08D04FF0500383F3C0
:102950001188BFF36F8FBFF34F8FFEE7704700BF43
:102960000C00002004ED00E0094B1B6843B94FF058
:10297000500383F31188BFF36F8FBFF34F8FFEE7D0
:10298000013B034A13600BB983F31188704700BF02
:102990000C0000200000000000000000000000000B
:1029A000EFF30980BFF36F8F154B1A681EF0100FFD
:1029B00008BF20ED108A20E9F04F10602DE90900D2
:1029C0004FF0500080F31188BFF34F8FBFF36F8F2C
:1029D000FFF772FD4FF0000080F3118809BC196801
:1029E0000868B0E8F04F1EF0100F08BFB0EC108A76
:1029F00080F30988BFF36F8F704700BFAFF300808B
:102A00008002002008B54FF0500383F31188BFF314
:102A10006F8FBFF34F8FFFF71DFC18B14FF080523F
:102A2000024B1A60002383F3118808BD04ED00E017
:102A3000084A0023136008490B60084B1B680849CB
:102A4000A1FB03139B09013B06490B60072313609D
:102A5000704700BF10E000E018E000E00800002030
:102A6000D34D621014E000E03A4B1A683A4B9A4298
:102A700008D14FF0500383F31188BFF36F8FBFF37A
:102A80004F8FFEE7334B1A68344B9A4208D14FF010
:102A9000500383F31188BFF36F8FBFF34F8FFEE7AF
:102AA00010B582B02E4B1A78D2B20192FF221A7062
:102AB0001B78DBB28DF803309DF8033003F0500330
:102AC000284A13700722284B1A6009E0264A136827
:102AD000013B13609DF803305B00DBB28DF80330DF
:102AE0009DF8033013F0800FF0D11F4B1B68032BB0
:102AF00008D04FF0500383F31188BFF36F8FBFF3FB
:102B00004F8FFEE71B0203F4E063174A1360019B3B
:102B1000DBB2134A1370154B1A6842F470021A6044
:102B20001A6842F070421A60FFF782FF0024104BCF
:102B30001C60FFF7C3FE0F4A136843F04043136065
:102B4000FFF7A8FEFFF7B8FCFFF784FE204602B0AF
:102B500010BD00BF00ED00E071C20F4170C20F4117
:102B600000E400E0C83F0020CC3F002020ED00E062
:102B70000C00002034EF00E0DFF834D00D480E499F
:102B80000E4A002302E0D458C4500433C4188C42C7
:102B9000F9D30B4A0B4C002301E013600432A2422C
:102BA000FBD3FFF7CBF8FDF765FBFDF75DFE704744
:102BB000000002200000002010000020642C00080B
:102BC00010000020B4400020FEE70000F8B500BF70
:102BD000F8BC08BC9E467047F8B500BFF8BC08BCFE
:042BE0009E46704756
:102BE400282C0008D906000800000000000000009E
:102BF40080000000000000000000000048656C6CCC
:102C04006F20687561727432210D0A0048656C6C1E
:102C14006F20687561727431210D0A0031323334CA
:102C24000000000064656661756C745461736B0028
:102C34000000000000000000010203040607080968
:102C4400000000000102030449444C450000000058
:082C54003CD7FF7F01000000E6
:042C5C003D0200082D
:042C60001502000851
:102C640001000000100000000024F400AAAAAAAA8F
:0400000508002B794B
:00000001FF
